:020000040800F2
:10000000300D0020010100089F1600085D15000852
:100010009D160008AB030008911A000800000000BC
:10002000000000000000000000000000B116000801
:10003000AD03000800000000AF160008B31600086A
:100040001B0100081B0100081B0100081B01000820
:100050001B0100081B0100081B0100081B01000810
:100060001B0100081B0100081B0100081B01000800
:100070001B0100081B0100081B0100081B010008F0
:100080001B0100081B0100081B0100081B010008E0
:100090001B0100081B0100081B0100081B010008D0
:1000A0001B010008191700081B0100081B010008AC
:1000B0001B0100081B0100081B0100081B010008B0
:1000C0001B0100081B0100081B0100081B010008A0
:1000D0001B010008851A00081B0100081B0100080D
:1000E0001B0100081B0100081B010008DFF80CD0F1
:1000F00000F02CF900480047C5200008300D002012
:100100000648804706480047FEE7FEE7FEE7FEE7B1
:10011000FEE7FEE7FEE7FEE7FEE7FEE7151700084D
:10012000ED000008202A04DB203A21FA02F0002129
:10013000704721FA02F3D040C2F1200291400843F7
:1001400019467047D2B201E000F8012B491EFBD2DC
:1001500070470022F6E710B513460A4604461946D2
:10016000FFF7F0FF204610BD30B505462A460B4686
:1001700012F8010B13F8014B08B1A042F8D01CB1E2
:10018000002802D06D1CF1E7284630BD10B50446AA
:1001900004E00B7800F8013B03B1491C521EF8D271
:1001A000204610BD421C10F8011B0029FBD1801A0B
:1001B000704730B505460020034600E05B1C9342C3
:1001C00005D2EC5CC85C201A01D1002CF6D130BD00
:1001D0002DE9F05F93460F4680460446002601F065
:1001E00079FCD0F80090824614F8015B2DB100F044
:1001F00059F80068405DC007F6D12B2D02D02D2D97
:100200001AD0641E0021CAF800105A46394620460A
:1002100000F04CF8014627B13868A04201D1C7F878
:100220000080DAF80000022809D0CAF800907005B2
:1002300005D54842BDE8F09F46F48066E2E70846EF
:10024000F8E72DE9F05F0546002092469B46884678
:100250000646814640241BE0284641464746224642
:10026000FFF760FF53465A46C01A914110D311461A
:100270001846224600F07CF82D1A67EB01084F461D
:1002800022460120002100F073F817EB00094E41CF
:10029000201EA4F10104DFDC484631462A464346CD
:1002A000BDE8F09F00487047282700082DE9F05F5F
:1002B00082460078002715468B460AF10104B946AC
:1002C000302801D09DB113E014F8010B01277828E4
:1002D00003D0582801D045B10AE00DB1102D07D147
:1002E0000027102514F8010B02E0082500E00A257C
:1002F0000026B0460EE005FB080005FB06F10127CD
:1003000001EB10461FFA80F8B6F5803F00D3B946DE
:1003100014F8010B294600F03AF80028EBDABBF19B
:10032000000F05D00FB1641E00E05446CBF800402A
:10033000B9F1000F06D001F0CDFB02210160C81E0B
:10034000BDE8F09F48EA0640FAE70000064C074D7A
:1003500006E0E06840F0010394E807009847103495
:10036000AC42F6D3FFF7C6FE2C2700084C27000846
:10037000202A04DB203A00FA02F100207047914065
:10038000C2F1200320FA03F31943904070473A2842
:1003900000D2303820F02002412A01D3A2F13700E8
:1003A000884201D34FF0FF307047FEE7704710B529
:1003B00090F821100022022905D00421816380F8E1
:1003C0002020012010BD01680B6823F00E030B6094
:1003D00001680B6823F001030B6090F84030C46B98
:1003E000012101FA03F3636080F8211080F82020D6
:1003F000104610BD10B590F821100024022903D03A
:100400000421816301243DE001680A6822F00E02A4
:100410000A6001680A6822F001020A601A4A01684B
:10042000914201D1012121E0174A1432914201D1B8
:1004300010211BE0144A2832914201D1891515E0A0
:10044000114A3C32914201D189140FE00E4A5032D8
:10045000914202D14FF4803108E00B4A643291425C
:1004600002D14FF4801101E04FF08071064A083A42
:100470005160012180F82110002180F82010416B8B
:1004800001B18847204610BD0800024070B50446FF
:1004900000F004F90546601C02D0044800780444CA
:1004A00000F0FCF8401BA042FAD370BD040000200D
:1004B0002DE9F84FDFF8B8910024A9F1040B234689
:1004C0000F2709F1040AABF1040EC9E00125A5408C
:1004D0002A40AA427DD1674ED1F804C0ACEB060891
:1004E000B44532D014DCBCF1030F3AD009DCBCF1C6
:1004F000000F2AD0BCF1010F1CD0BCF1020F31D18A
:100500001DE0BCF1110F17D0BCF1120F2AD119E078
:10051000B8F5881F19D006DCB8F5803F15D0B8F5BE
:10052000801F1FD111E0B8F5001F0ED0B8F5041FD1
:1005300018D10AE0CB6815E0CB681B1D12E0CB6830
:1005400008330FE0CB680C330CE08B682BB1012B28
:100550004FF0080303D0456104E0042302E0056185
:1005600000E00023FF2A01D8064601E000F104065E
:100570004FEA840501D9A5F12005D6F8008007FAD5
:1005800005FC28EA0C0803FA05F548EA0508C6F850
:1005900000804D68ED0062D5374DAE6946F001062A
:1005A000AE61AD6924F0030605F001050095334DF9
:1005B00006EB050CDCF80850A607360F07FA06F81C
:1005C00025EA0805DFF8B880404503D14FF0000860
:1005D00017E044E0DFF8AC80404502D14FF001085D
:1005E0000FE0DFF8A480404502D14FF0020808E098
:1005F000DFF89880404502D14FF0030801E04FF04A
:10060000040808FA06F848EA0508CCF808804D689E
:10061000D9F80060ED024D4601D5164300E096433F
:100620002E604D68DAF80060AD02554601D51643DC
:1006300000E096432E604D68DBF80060AD035D4638
:1006400001D5164300E096432E604D68DEF8006049
:10065000ED03754601D5164300E096432E60641CF9
:100660000D682A46E5407FF431AFBDE8F88F000001
:100670000804014000001110001002400000014079
:1006800000080140000C014000100140001401402E
:100690000AB1016170470904FBE700000148806866
:1006A000704700000400002002488168027811446D
:1006B0008160704704000020074810B5016841F0D0
:1006C00010010160032000F075F80F2000F006F81B
:1006D00000F024F8002010BD0020024070B50D4D40
:1006E00004464FF47A712878B1FBF0F00A490968A2
:1006F000B1FBF0F000F0DCFA48B9102C07D2002270
:100700002146501E00F036F800206C6070BD0120BC
:1007100070BD000004000020100000200C4808B547
:10072000816941F001018161816901F0010100915C
:10073000C16941F08051C161C06900F080500090F2
:100740000448416821F0E06141F00071416008BD5A
:100750000010024000000140002809DB00F01F02E9
:10076000012191404009800000F1E020C0F8001113
:1007700070470000F0B40E4B1B680C46C3F3022315
:10078000C3F10705042D00D90425191D072901D23D
:10079000002300E0DB1E012606FA05F1491E214078
:1007A00099409E40761E16403143F0BC01F082B95C
:1007B0000CED00E0064900F0070208684FF6FF0361
:1007C000184040EA0220034A1043086070470000C6
:1007D0000CED00E00000FA052DE9F0470F4605009A
:1007E00061D0434E306800F00700B84209D230684B
:1007F00020F0070038433060306800F00700B8424E
:1008000051D128683B4C810712D5400703D5606859
:1008100040F4E06060602878000703D5606840F429
:10082000605060606068A96820F0F0000843606074
:100830002878C00728D06868012810D021680228CD
:1008400010D0890700292EDA616821F003010143E5
:100850006160FFF723FF804641F288390DE021688F
:100860008903EFE78901EDE7FFF718FFA0EB080127
:10087000494502D90320BDE8F0876068696800F047
:100880000C00B0EB810FEFD1306800F00700B842E8
:100890000BD9306820F0070038433060306800F032
:1008A0000700B84201D00120E5E72878400705D5C8
:1008B0006068E96820F4E060084360602878000719
:1008C00006D56068296920F4605040EAC100606084
:1008D00000F038F86168084AC1F30311515CC84060
:1008E0000649086006480068FFF7F8FE0020C2E7E6
:1008F00000200240001002408C260008100000205A
:10090000080000200448054900684968044AC1F30A
:100910000221515CC84070471000002000100240C6
:100920009C2600080448054900684968044AC1F348
:10093000C221515CC84070471000002000100240E6
:100940009C2600080E4A51680E4801F00C03042B47
:1009500011D0082B0FD10C48C1F38343C903C05CED
:100960000AD55168084AC1F34041921E515C054ABC
:100970005043B0FBF1F07047044948437047000012
:100980000010024000127A007C26000800093D0099
:100990002DE9F84F040070D02078C04DC00749D031
:1009A0006868C0F38100012807D06868C0F381003F
:1009B000022809D16868C00306D52868800339D5A4
:1009C00060680028E7D035E06068B0F5803F0BD064
:1009D00010B1B0F5A02F11D0286820F48030286025
:1009E000286820F4802002E0286840F480302860E5
:1009F000606890B1FFF752FE06460AE0286840F4AE
:100A000080202860F0E700BFFFF748FE801B6428C5
:100A100073D828688003F7D50CE0FFF73FFE064641
:100A200005E000BFFFF73AFE801B6428F0D8286875
:100A30008003F7D420789A4E80074FF001094FF0D9
:100A4000000839D5686810F00C0F07D06868C0F34B
:100A50008100022809D16868C00306D4286880078D
:100A600014D52069012808D110E02069B0B1C6F87A
:100A70000090FFF713FE074605E00AE1FFF70EFEC0
:100A8000C01B0228C4D828688007F7D52868616988
:100A900020F0F80040EAC10028600DE0C6F80080B0
:100AA000FFF7FCFD074604E0FFF7F8FDC01B022836
:100AB00023D828688007F7D4207800072CD57948F8
:100AC000A169D9B1C0F80090FFF7E8FD074604E03E
:100AD000FFF7E4FDC01B02280FD8686A8007F7D52E
:100AE00071484FF4FA510068B0FBF1F0009000BF7C
:100AF0000098411E0091FAD20EE080E0C0F800801C
:100B0000FFF7CCFD074604E0FFF7C8FDC01B022835
:100B100075D8686A8007F7D42078400760D5E869FF
:100B20000027C00008D4E86940F08050E861E86917
:100B3000012700F0805000905C480168C90513D47B
:100B40000168834641F480710160FFF7A7FD82468A
:100B500006E000BFFFF7A2FDA0EB0A0064284ED814
:100B6000DBF80000C005F5D5E06801280AD008B11F
:100B7000052813D0286A20F001002862286A20F096
:100B8000040002E0286A40F001002862E06841F2B7
:100B9000883B98B1FFF782FD82460BE0286A40F05F
:100BA00004002862EEE700BFFFF778FDA0EB0A0122
:100BB00059455AD8286A8007F6D50CE0FFF76EFD34
:100BC000824605E0FFF76AFDA0EB0A0159454CD8C3
:100BD000286A8007F6D41FB1E86920F08050E861E8
:100BE000E06988B36968C1F38101022944D0022811
:100BF000C6F8608004D0FFF751FD044638E034E0C9
:100C0000FFF74CFD074604E0FFF748FDC01B022834
:100C10002BD828688001F7D4206AB0F5803F05D131
:100C20006868A16820F4003008436860D4E90801CE
:100C30000843696821F4741108436860C6F860903D
:100C4000FFF72CFD044606E025E000BFFFF726FD78
:100C5000001B022809D828688001F7D51BE000BFD7
:100C6000FFF71CFD001B022802D90320BDE8F88F06
:100C700028688001F4D40EE00128F7D06868226A61
:100C800000F48031914204D1616A00F4701088420E
:100C900001D00120EAE70020E8E700000010024050
:100CA00000004242800442421000002000700040D8
:100CB00010B5401EB0F1807F01D3012010BD4FF070
:100CC000E02460610F21601700F0F4FE0020A061B5
:100CD00007202061002010BD7047704770B590F864
:100CE0003C20012A26D0012480F83C40022280F8D2
:100CF0003D2003685A689D6822F070060A683243F6
:100D00005A600D4B02689A4208D0B2F1804F05D06C
:100D10000A4B9A4202D00A4B9A4204D1496825F004
:100D200080031943916080F83D40002180F83C1019
:100D3000084670BD022070BD002C01400004004038
:100D40000008004010B5040003D094F83D0010B135
:100D500007E0012010BD002084F83C00204600F090
:100D60001FF8022084F83D00211D206800F0DAFC05
:100D7000012084F8460084F83E0084F83F0084F89F
:100D8000400084F8410084F8420084F8430084F86D
:100D9000440084F8450084F83D00002010BD0000A8
:100DA00008B500680B49884212D10B48816941F4AB
:100DB000006181618069002200F4006000901146AA
:100DC0001920FFF7D7FCBDE808401920FFF7C4BC85
:100DD00008BD0000002C01400010024090F83D10BA
:100DE000012901D001207047022180F83D100168DF
:100DF000CA6842F00102CA6000680B49884208D004
:100E0000B0F1804F05D00949884202D00849884294
:100E100004D1816801F00701062903D0016841F07F
:100E20000101016000207047002C014000040040D7
:100E30000008004070B5044690F83C0000250128E9
:100E400017D0012684F83C60022084F83D00206819
:100E5000826822F0770222F47F428260086850287C
:100E600038D00DDC20284FD005DC90B3102811D1EC
:100E70004AE0022070BD302846D040280AD13BE02D
:100E800060282FD070280DD0B0F5805F03D0B0F56A
:100E9000005F12D0012584F83D60002084F83C00FA
:100EA000284670BDCB68D1E90121206800F070FCB4
:100EB0002068816841F0770109E0CB68D1E9012120
:100EC000206800F065FC2068816841F48041816001
:100ED000E1E719E0CA684968206800F06BFC50211E
:100EE000206806E0CA684968206800F074FC602148
:100EF000206800F057FCCEE7CA684968206800F017
:100F000059FC40212068F4E7226801461046F0E7CA
:100F1000704770B50446006801694FF00005C94389
:100F2000890715D4C168C943890711D4E91E016135
:100F300001202077206880698007204602D0FFF7D3
:100F4000E7FF04E000F098F8204600F096F82577D7
:100F500020680169C943490717D4C168C9434907D3
:100F600013D46FF0040101610220207720688069AA
:100F700010F4407F204602D0FFF7CAFF04E000F0E3
:100F80007BF8204600F079F8257720680169C9438D
:100F9000090716D4C168C943090712D46FF00801C4
:100FA0000161042020772068C0698007204602D0B4
:100FB000FFF7AEFF04E000F05FF8204600F05DF8B8
:100FC000257720680169C943C90617D4C168C94398
:100FD000C90613D46FF01001016108202077206842
:100FE000C06910F4407F204602D0FFF791FF04E073
:100FF00000F042F8204600F040F8257720680169AB
:10100000C943C90708D1C168C943C90704D1891EAA
:101010000161204600F032F820680169C9430906E1
:1010200009D4C168C943090605D46FF08001016184
:101030002046FFF751FE20680169C943490609D4DB
:10104000C168C943490605D46FF0400101612046DB
:1010500000F015F820680169C94389060BD4C168FE
:10106000C943890607D46FF0200101612046BDE81D
:101070007040FFF732BE70BD7047704770477047D1
:1010800070477047F8B5016804460868CA684B693C
:1010900010F00F0F4FF0000559D003F0010602F4D5
:1010A0009077374365D0C10705D0D10503D5616C72
:1010B00041F001016164410705D5D90703D0616C96
:1010C00041F002016164810705D5D90703D0616C45
:1010D00041F004016164010707D502F020013143AA
:1010E00003D0616C41F008016164616C00293AD061
:1010F000800604D5900602D5204600F0ADFB20689E
:101100004069616CC0F38010090700D460B32046C9
:1011100000F07BFB20684069400621D52068143030
:1011200050E8001F21F0400140E80012002AF5D1EC
:10113000E06BA8B16D494163E06BFFF75BF90028F4
:1011400011D0E06B416B01B0BDE8F0400847830669
:101150000FD593060DD52046BDE8F84000F07CBBC6
:101160002046FFF78EFFF8BD2046FFF78AFF656433
:10117000F8BD266B2023012E7CD1C6067AD5D60673
:1011800078D508684868009048694FF00206400624
:1011900040D5E16B086840680004000CE8D0A28DDF
:1011A0008242E5D9E085886920282DD020680C305E
:1011B00050E8001F21F4807140E80012002AF5D1A8
:1011C0002068143050E8001F21F0010140E80012AF
:1011D000002AF5D12068143050E8001F21F04001AA
:1011E00040E80012002AF5D184F8423025632068D7
:1011F0000C3050E8001F21F0100140E80012002AD6
:10120000F5D1E06BFFF7D3F86663A08DE18D401A4E
:1012100081B22AE0A08DE18D401A81B2E08D0028D4
:10122000A6D00029A4D022680C3252E8000F20F486
:10123000907042E80007002FF5D12068143050E884
:10124000002F22F0010240E80027002FF5D184F89A
:101250004230256320680C3050E8002F22F0100245
:1012600040E80023002BF5D166632046FFF708FF16
:10127000F8BDFFE705062BD5150629D594F84100E2
:101280002128F5D1A068B0F5805F01D12069B0B107
:10129000206A411C2162216800784860E08C401E71
:1012A0000004000CE084E3D12068C16821F08001D3
:1012B000C1602068C16841F04001C160D8E7206A80
:1012C0000088C0F308004860206A801C2062E5E7BF
:1012D0004006CDD55006CBD5CA68204622F0400244
:1012E000CA6084F8413000F038F9C1E7FB17000804
:1012F00070B5040004D094F84100002510B106E058
:10130000012070BD84F84050204600F023F82420CE
:1013100084F841002068C16821F40051C160204672
:1013200000F0FCFA2068016921F490410161206815
:10133000416921F02A0141612068C16841F40051EE
:10134000C1606564202084F8410084F84200656330
:10135000002070BD30B585B0002400940194029443
:1013600003940068184988422CD11848816941F4D7
:1013700080418161816901F480410491816941F07A
:10138000040181618069124D00F0040004904FF463
:1013900000700090022001900320039069462846C7
:1013A000FFF786F82815CDE900046946284602941F
:1013B000FFF77EF8002211462520FFF7DBF92520F4
:1013C000FFF7CAF905B030BD0038014000100240F7
:1013D0000008014090F84230202B01D002207047D5
:1013E00021B11AB10023036300F0F4BA0120704761
:1013F0001CB50068264988423FD12648264A017814
:1014000043785354491CC9B20170114411F8012C9E
:101410000A2A32D111F8021C0D292ED100210170A7
:1014200080211E48FEF795FE1C484FF4806421463B
:101430008030FEF78EFE10211848CDE9000101230F
:1014400017A22146144801F09BF81448202180304F
:10145000CDE90001022312A221460F4801F090F8C5
:101460000E4910A000F016FB0C4911A0803100F0CD
:1014700011FB21460848FEF76CFE064902B00648FB
:101480000122491CBDE810404838FFF7A3BF000007
:101490000038014000000020AC000020AC04002017
:1014A0003A0000006D6F64653A25730D0A00000074
:1014B00073657474696E673A25730D0A0000000045
:1014C0002DE9F843044690F841001F4616460D46A4
:1014D000202802D00220BDE8F8837DB176B100203B
:1014E0006064212084F84100FFF7D8F8A684804684
:1014F000E684A068B0F5805F02D003E00120EAE74F
:10150000206910B12E4600250EE000260CE0802157
:10151000204600F07AFAA0B9AEB116F8010B2168A6
:101520004860E08C401EE084E08C43464FF00002AF
:1015300000970028EBD14FF04001204600F065FAFB
:1015400030B10320C7E735F8020BC0F30800E6E727
:10155000202084F841000020BDE77047FEE700002E
:101560002DE9F04786B000242D48009401940294A0
:101570000394816941F010018161816901F01001DA
:101580000491816941F020018161816901F02001AC
:101590000491816941F004018161816901F00401D4
:1015A0000491816941F0080181618069DFF87480EC
:1015B00000F008004FF460450490002229464046A0
:1015C000FFF766F8DFF860900022FF214846FFF73A
:1015D0005FF8DFF858A040F2F9170022394650466C
:1015E000FFF756F80095022601250396CDE9015430
:1015F00069464046FEF75CFFFF20CDE90005CDE9D6
:10160000024669464846FEF753FF00970396CDE928
:10161000015469465046FEF74BFF06B0BDE8F0871F
:10162000001002400010014000080140000C014081
:1016300010B586B0002418480094019402940394D5
:10164000049414490594016048F69F41C0E90114CF
:1016500040F2CF71C0E9031444618461FFF772FB6B
:1016600008B172B6FEE74FF48050009069460A4810
:10167000FFF7E0FB08B172B6FEE7049404A9064840
:101680000594FFF72BFB002801D072B6FEE706B0E9
:1016900010BD0000002C01401C000020FEE7FEE70A
:1016A000012A01D0002A01D1FEF7F2BF704770472E
:1016B0007047FEF7F9BF30B58FB028216846FEF7B6
:1016C00048FD14210AA8FEF744FD01210804CDE9D4
:1016D00000100024029402250491CDE907504FF434
:1016E000E01009906846FFF753F908B172B6FEE7BB
:1016F0000F20CDE90A054FF48060CDE90C400221AE
:101700000AA80E94FFF768F8002801D072B6FEE729
:101710000FB030BD704700000148FFF7FABB000072
:101720001C000020F0B50268164B174C174D4FF007
:101730008047984205D0B84203D0A04201D0A842C9
:1017400003D122F070064A683243984205D0B8426D
:1017500003D0A04201D0A84203D122F44074CA6849
:1017600022434C6922F08002224302608A68C262EE
:101770000A688262984201D10969016301214161CD
:10178000F0BD0000002C01400004004000080040B3
:1017900010B5846842EA032224F47F440A432243BA
:1017A000826010BD826822F070020A4342F0070195
:1017B0008160704710B5036A046A24F00104046272
:1017C000846924F0F00444EA021423F00A020A4374
:1017D0008461026210BD10B5036A046A24F010042B
:1017E0000462846923F0A00324F4704444EA0232C2
:1017F00043EA01118261016210BD10B5406A002107
:10180000C185C184FFF73DFC10BD01680C3151E872
:10181000002F22F4907241E80023002BF5D10168DB
:10182000143151E8002F22F0010241E80023002B7F
:10183000F5D1016B012909D101680C3151E8002F64
:1018400022F0100241E80023002BF5D1202180F87E
:10185000421000210163704708B590F84210222918
:1018600001D0022008BD82684FF480539A4201D112
:10187000016921B1816A9A421BD04AB10AE002682B
:10188000816A5268C2F308020A80816A891C08E0F2
:10189000026972B10268526802F07F020A70816ABE
:1018A000491C8162C18D491E0904090CC18503D000
:1018B0001BE002685268F1E70168CA6822F0200262
:1018C000CA600168CA6822F48072CA6001684A6905
:1018D00022F001024A61202180F842100021416378
:1018E000026B012A03D0FFF783FD002008BD0163CE
:1018F00001680C3151E8002F22F0100241E800236A
:10190000002BF5D101680A68D20602D50A68496839
:101910000091818DFFF7B4FBE7E7000070B5044646
:1019200000680169E26821F44051114301612169B5
:10193000A0680843616908432168CA6841F20C63E2
:101940009A430243CA6020684169A26921F4407148
:10195000114341611E492068884202D1FEF7E2FF2F
:1019600001E0FEF7CFFF00EBC00101EB0012606861
:1019700064218000B2FBF0F3B3FBF1F36FF01806C3
:101980007343B2FBF0F5B2FBF0F605EB83053223AF
:1019900003EB0515B5FBF1F5B6FBF1F605F0F00527
:1019A00005EB0615B2FBF0F6B2FBF0F0B0FBF1F080
:1019B0006FF01802504306EB800003EB0010B0FB01
:1019C000F1F0216800F00F002844886070BD00002D
:1019D0000038014081628285C28500214164222154
:1019E00080F84210016921B10168CA6842F480722E
:1019F000CA6001684A6942F001024A610068C16830
:101A000041F02001C160002070472DE9F041984667
:101A100017460E460446069D27E0681C25D02DB1CA
:101A2000FEF73CFEA0EB0800A8421ED920680C304F
:101A300050E8001F21F4D07140E80012002AF5D1CF
:101A40002068143050E8001F21F0010140E8001226
:101A5000002AF5D1202084F8410084F842000020BB
:101A600084F840000320BDE8F0812068006836EA71
:101A7000000004D00020B842CFD00020F3E70120BE
:101A8000F9E700000148FFF7FDBA000064000020FC
:101A9000FEE700000FB4054B10B503A9044A0298F5
:101AA00000F02CF810BC5DF814FB00004920000881
:101AB000140000200907090E002804DB00F1E020D3
:101AC00080F80014704700F00F0000F1E02080F86B
:101AD000141D7047004870471800002002E008C835
:101AE000121F08C1002AFAD170477047002001E098
:101AF00001C1121F002AFBD1704700002DE9FF4FE2
:101B00008DB00F460546002606E025280BD0DDE9FE
:101B10000F1290476D1C761C28780028F5D111B063
:101B20003046BDE8F08F0024A246A1460122EC49D0
:101B300000E0044315F8013F203B02FA03F008429D
:101B4000F7D128782A2810D06FF02F022878A0F13A
:101B50003001092914D80AEB8A0102EB410144F053
:101B6000020400EB010A6D1CF0E701CF5FEA000AF6
:101B700003D544F40054CAF1000A44F002046D1C79
:101B800028782E2817D115F8010F44F004042A28CC
:101B90000ED06FF02F022878A0F1300109290AD861
:101BA00009EB890102EB410100EB01096D1CF2E731
:101BB00057F8049B6D1C28786C280FD006DC4C2845
:101BC00017D068280DD06A2814D104E0742810D0EA
:101BD0007A280FD10DE044F400140AE044F4801494
:101BE00001E044F440146978814202D104F5801484
:101BF0006D1C6D1C2A786E2A1FD00CDC632A31D034
:101C000004DC002A8BD0582A11D1A3E0642A68D0C2
:101C1000692A0CD165E0732A2ED004DC6F2A73D0B8
:101C2000702A04D19BE0752A6FD0782A6ED01046B6
:101C3000DDE90F129047761C50E1C4F302500228F0
:101C400006D0032809D0042801CF09D0066045E159
:101C500001CFF117C0E9006140E101CF06803DE10D
:101C600006703BE117F8040B8DF8000000208DF89A
:101C70000100EB46012003E057F804BB4FF0FF30B2
:101C800061074FF0000102D40DE008F10101884620
:101C900049450FDA8045F8DB1BF808100029F4D11C
:101CA00008E008F1010188468142FADB1BF80810C0
:101CB0000029F6D1DDE90F23AAEB08008146214671
:101CC00000F036F9304400EB080604E0DDE90F12BD
:101CD0001BF8010B9047B8F10108F7D2214648469E
:101CE000F7E00A21C4F302534FF0000B0891022BD6
:101CF00004D001CFC117032B09D00AE0FF1D27F044
:101D00000707F7E8020108E032E01FE020E000B238
:101D1000C117042B01D140B2C117031E71F100039A
:101D200007DA4FF0000CD0EB0C006CEB01012D2317
:101D300002E0230504D52B238DF82430012303E092
:101D4000E30701D02023F7E7984658E00A2110E086
:101D500010210EE010204FF0000B08900CE0102135
:101D60004FF0000B44F004044FF00809089103E021
:101D700008214FF0000B0891C4F30253022B04D04A
:101D800001CF0021032B06D006E0FF1D27F0070737
:101D9000F7E8020103E080B2042B00D1C0B24FF09B
:101DA000000823072BD5702A07D0DDF820C08CF05F
:101DB000100C5CEA0B0C05D00EE040238DF82430AB
:101DC000012308E050EA010306D030238DF82430C7
:101DD0008DF8252002239846DDF820C08CF0080CF1
:101DE0005CEA0B0C0BD150EA010301D1630706D565
:101DF00030238DF824304FF00108A9F10109582A49
:101E000004D038A20B9208AA0A920BE03AA2F9E792
:101E10005B46089AFEF715FA0B9B9B5C0A9A521ECA
:101E20000A92137050EA0102F2D10A98ADEB000059
:101E300000F1200B600702D524F4803401E04FF05C
:101E40000109D94502DDA9EB0B0000E0002000EB01
:101E50000B0141440890AAEB010AE00306D4DDE936
:101E60000F232146504600F063F806444FF0000966
:101E700008E009A911F80900DDE90F12904709F1FE
:101E80000109761CC145F4DBE0030CD5DDE90F2325
:101E90002146504600F04CF8064404E0DDE90F12FC
:101EA00030209047761C0899481E08900029F5DCE0
:101EB00008E00A980A990078491C0A91DDE90F1296
:101EC0009047761CBBF10001ABF1010BF1DC214620
:101ED0005046DDE90F2300F019F806446D1C1BE69F
:101EE00009280100303132333435363738396162F0
:101EF00063646566000000003031323334353637B4
:101F00003839414243444546000000002DE9F04184
:101F1000044600251E461746880404D405E03946C9
:101F20002020B0476D1C641EF9D52846BDE8F0811D
:101F30002DE9F041044600251E469046C80301D510
:101F4000302700E02027880404D505E041463846C4
:101F5000B0476D1C641EF9D52846BDE8F08100002D
:101F600070B5364D0446012211022846FFF798FB52
:101F700004F0010240212846FFF792FBC4F340021F
:101F800020212846FFF78CFBC4F38002102128464D
:101F9000FFF786FBC4F3C00280212846FFF780FBD1
:101FA000C4F3001201212846FFF77AFB244EC4F344
:101FB000401280213046FFF773FBC4F380124021AA
:101FC0003046FFF76DFBC4F3C01208212846FFF727
:101FD00067FBC4F3002210213046FFF761FBC4F316
:101FE000402208213046FFF75BFBC4F38022042126
:101FF0003046FFF755FBC4F3C02220213046FFF7DF
:102000004FFBC4F3003201213046FFF749FB0D4D71
:10201000C4F340324FF400412846FFF741FBC4F3BC
:1020200080324FF480412846FFF73AFBC4F3C032B8
:102030003046BDE870400221FFF732BB000C014082
:10204000000801400010014013B54FF6FF73012254
:1020500069460248FFF734FA00981CBD640000206E
:10206000A0F13001092905D93139052902D94138B2
:10207000052801D8012070470020704700B50200F4
:1020800018D01078B0B1302804D15078782803D017
:10209000582801D0002010E0022304E0FFF7E0FF01
:1020A000002808D05B1CD05C0028F7D108E030394C
:1020B0000A2901D3002000BD401C115C0029F6D183
:1020C000012000BDFEF7F8FAFFF7F5FAFFF748FA2E
:1020D0001A4819490C2201604FF4E1314160002196
:1020E0008160C160C0E904128161C161FFF700F93C
:1020F00008B172B6FEE7FFF79BFA10484838FEF7C2
:102100006DFE01220E490D48FFF764FC0DA0FFF79C
:10211000C1FC0FA0FFF7BEFC4FF47A7411A1134865
:10212000FEF722F820B111491048803100F020F864
:102130002046FEF7ABF9F1E70038014064000020CB
:102140000100002053746172742055700D0A000064
:1021500032303235303931352056657273696F6EE1
:102160000D0A00005472696D00000000AC040020EC
:1021700070B586B0064613226846FEF707F80020C1
:102180008DF81300684600F05FFA6846FFF776FFA7
:1021900068B1002205A96846FEF71AF805996A4653
:1021A000914201D0097829B111464BA007E0694658
:1021B00052A004E0B0F5803F05D3114658A0FFF7C8
:1021C00069FC06B070BD85B2604841888D42F8D088
:1021D000458065F30F042046FFF7C2FE5CA0FFF7C1
:1021E00059FC314662A0FFF755FC694663A0FFF732
:1021F00051FC2A46114667A0FFF74CFC6CA0FFF784
:1022000049FC0F2625FA06F000F001016BA0FFF74C
:1022100041FCB00703D126B169A0FFF73BFC761E55
:10222000F0D568A0FFF736FC67A0FFF733FCC4F3D6
:10223000C0316AA0FFF72EFCC4F380316DA0FFF718
:1022400029FCC4F3403171A0FFF724FCC4F3003132
:1022500074A0FFF71FFCC4F3C02178A0FFF71AFC9D
:10226000C4F380217BA0FFF715FCC4F340217FA0BD
:10227000FFF710FCC4F3002182A0FFF70BFCC4F3AE
:10228000C01186A0FFF706FCC4F3801189A0FFF7F8
:1022900001FCC4F340118DA0FFF7FCFBC4F3001157
:1022A00090A0FFF7F7FBC4F3C00194A0FFF7F2FB87
:1022B000C4F3800197A0FFF7EDFBC4F340019BA09E
:1022C000FFF7E8FB04F001019EA0FFF7E3FBA3A0EA
:1022D000FFF7E0FB75E700004572726F723A204924
:1022E0006E76616C6964206E756D62657220666FD2
:1022F000726D617420272573270A00004572726F82
:10230000723A20496E76616C6964206E756D6572F3
:10231000696320737472696E6720272573270A002A
:102320004572726F723A2056616C7565206F7574D4
:10233000206F662072616E67652028302D36353536
:102340003335293A2025730A0000000000000020E0
:102350000A3D3D3D204E65772053657474696E6774
:10236000205265636569766564203D3D3D0A000045
:102370004D6F64653A2025730A000000536574743C
:10238000696E6720737472696E673A202725732718
:102390000A00000031362D6269742076616C756523
:1023A0003A2025752028307825303458290A000035
:1023B00042696E6172793A200000000025640000D5
:1023C000200000000A0A000042697420416C6C6F12
:1023D000636174696F6E3A0A000000004C444F3329
:1023E00020202028426974203135293A2025640AAA
:1023F000000000004C444F32202020284269742005
:102400003134293A2025640A000000004C444F3141
:1024100020202028426974203133293A2025640A7B
:10242000000000004C444F302020202842697420D6
:102430003132293A2025640A0000000052315F49F8
:102440004E332028426974203131293A2025640A0C
:102450000000000052315F494E322028426974204A
:102460003130293A2025640A0000000052315F49CA
:102470004E3120284269742039293A202025640AE7
:102480000000000052315F494E302028426974201C
:1024900038293A202025640A0000000052325F49A2
:1024A0004E3320284269742037293A202025640AB7
:1024B0000000000052325F494E32202842697420E9
:1024C00036293A202025640A0000000052325F4974
:1024D0004E3120284269742035293A202025640A8B
:1024E0000000000052325F494E30202842697420BB
:1024F00034293A202025640A0000000052335F4945
:102500004E3320284269742033293A202025640A5A
:102510000000000052335F494E3220284269742087
:1025200032293A202025640A0000000052335F4916
:102530004E3120284269742031293A202025640A2E
:102540000000000052335F494E3020284269742059
:1025500030293A202025640A000000003D3D3D3D21
:102560003D3D3D3D3D3D3D3D3D3D3D3D3D3D3D3D9B
:102570003D3D3D3D3D3D3D3D3D3D3D3D0A00000075
:102580002DE9FF5F4FF0000489465FEA0008254609
:10259000A246264606D00E9820B1029810B10398A4
:1025A000002804DC4FF0FF3004B0BDE8F09F029833
:1025B000FDF7F8FD8346B9EB0B0719D56FF0010065
:1025C000F2E700BF08EB04005A460299FDF7F1FD5F
:1025D00068B9BAF1000F14D10398761C01281DD0F8
:1025E0000399701C884202D126464FF0010A641CF0
:1025F000BC4203DC18F804000028E3D1BAF1000F54
:1026000020D0A9F1010086421CDAA51B0F986D1E8F
:10261000854201DC4D4508DD002513E02246414698
:102620000E98FDF7B3FD25460CE0002D0ADD08EB02
:1026300006012A46491C0E98FDF7A8FD0E98FDF7E5
:10264000B1FD05462846AFE710B5040014D0FDF7EC
:10265000A9FD002303E000BF02F8013C401E002852
:102660000ADD221812F8011C0A29F5D00D29F3D031
:102670002029F1D00929EFD010BD01020203040581
:10268000060708090A0B0C0D0E0F101000000000C1
:102690000000000001020304060708090000000012
:1026A000010203040040404040404040404041415E
:1026B0004141414040404040404040404040404017
:1026C00040404040400502020202020202020202B1
:1026D00002020202022020202020202020202002AE
:1026E000020202020202909090909090101010103E
:1026F00010101010101010101010101010101010DA
:10270000020202020202888888888888080808086D
:102710000808080808080808080808080808080839
:102720000202020240000000A52600084C27000813
:10273000000000201C000000DC1A000868270008C8
:102740001C000020140D0000EC1A0008000000001E
:102750000100000010000000000000000024F40050
:08276000000000000000000071
:04000005080000ED02
:00000001FF
